:020000040800F2
:10000000680800208D010008910100089301000894
:100010009501000897010008990100080000000000
:100020000000000000000000000000009B0100082C
:100030009D010008000000009F010008A1010008C8
:10004000A3010008A3010008A3010008A301000800
:10005000A3010008A3010008A3010008A3010008F0
:10006000A3010008A3010008A3010008A3010008E0
:10007000A3010008A3010008A3010008A3010008D0
:10008000A3010008A3010008A3010008A3010008C0
:10009000A3010008A3010008A3010008A3010008B0
:1000A000A3010008A3010008A3010008A3010008A0
:1000B000A3010008A30100082D050008A301000802
:1000C000A3010008A3010008A3010008A301000880
:1000D000A3010008A3010008A3010008A301000870
:1000E00085030008A3010008A301000800F002F83E
:1000F00000F03CF80AA090E8000C82448344AAF186
:100100000107DA4501D100F031F8AFF2090EBAE883
:100110000F0013F0010F18BFFB1A43F0010318473B
:10012000DC1A0000FC1A0000103A24BF78C878C11D
:10013000FAD8520724BF30C830C144BF04680C60ED
:10014000704700000023002400250026103A28BF35
:1001500078C1FBD8520728BF30C148BF0B60704739
:100160001FB5AFF300801FBD10B510BD00F085FFB7
:100170001146FFF7F5FF00F055FE00F0A3FFFFF773
:10018000F3FF00F0D9FD000030BF00000848004731
:10019000FEE7FEE7FEE7FEE7FEE7FEE7FEE7FEE737
:1001A000FEE7FEE703480449024A044B704700009B
:1001B000ED000008680000206808002068000020AA
:1001C0006948806940F004006749886167480068B1
:1001D000674908406749C1F800086348806940F4EE
:1001E0008060614988610846C06840F48060C860EA
:1001F0000846C06820F48060C8600846406820F463
:10020000404048600846406840F4004048605A4812
:1002100000685A4908405A49C1F804080846D0F80D
:100220000408C1F804080846D0F8040820F48070D7
:10023000C1F804080846D0F8080820F00200C1F808
:1002400008080846D0F8080820F46020C1F808081B
:100250000846D0F8080840F46020C1F808080846AD
:10026000D0F8080840F48010C1F808080846D0F813
:10027000080820F40060C1F808080846D0F82C08E7
:1002800020F47000C1F82C080846D0F82C08002093
:10029000C1F82C080846D0F810086FF30F00C1F819
:1002A00010080846D0F8100840F4C040C1F8100803
:1002B0000846D0F8100840F44060C1F8100808461D
:1002C000D0F8100840F03000C1F810080846D0F807
:1002D000100840F00600C1F810080846D0F80808D9
:1002E00040F00100C1F808080846D0F8080840F0BE
:1002F0000800C1F8080800BF1F48001D006810F082
:10030000080FF9D11C48001D006840F004001C498A
:10031000C1F8080800BF1848001D006810F0040F5D
:10032000F9D17047014614483030006820F01F00B2
:10033000134AC2F834081046D0F834080843C2F80B
:1003400034081046D0F8080840F48000C2F80808C5
:1003500000BF0948001F006810F0020FF9D00648DE
:100360004830006880B27047001002400008014029
:10037000000FF0FF0000014004280140FFFFF000E3
:100380000020014010B51E48006801280AD14FF432
:100390007A7000F043FB4FF4F5701A49088041076A
:1003A000A1F840044FF480601749086010BD10B5F3
:1003B0001648806940F008001449886114480068B4
:1003C00020F470601349C1F8040C0846D0F8040CFE
:1003D00040F40060C1F8040C0846D0F80C0C40F45E
:1003E0008060C1F80C0C02220A21012000F094FB6D
:1003F000022328220121184600F044FB10BD000012
:10040000288121423C0400401404014000100240B5
:10041000040C0140000001401B48806940F00800C6
:10042000194988611948006820F07F601849C1F8AF
:10043000000C0846D0F8000C40F00860C1F8000C31
:100440000846D0F8040C20F47060C1F8040C08468B
:10045000D0F8040C40F40060C1F8040C0846D0F851
:100460000C0C40F48060C1F80C0C0846D0F80C0C61
:1004700040F04000C1F80C0C0846D0F80C0C40F0DD
:100480002000C1F80C0C704700100240000C014025
:10049000000001402248806940F00800204988613E
:1004A0002048006820F070401F49C1F8000C084641
:1004B000D0F8000C40F04050C1F8000C0846D0F8CD
:1004C000040C00F0FF20C1F8040C0846D0F8040C1E
:1004D00040F03310C1F8040C0846D0F80C0C40F082
:1004E0008000C1F80C0C0846D0F80C0C40F4807069
:1004F000C1F80C0C0846D0F80C0C40F40070C1F8A0
:100500000C0C0846D0F80C0C20F48050C1F80C0CF0
:100510000846D0F80C0C20F40050C1F80C0C7047C1
:1005200000100240000C0140000001407A480088A1
:100530004FF08040B0F8100820F0010076490880A4
:10054000704770B504460D467448C06940F0040019
:100550007249C86170481C3004808804A0F828588B
:10056000B0F80C0840F001008904A1F80C08084616
:10057000B0F8000840F00100A1F8000802231E2294
:100580000321084600F07EFA70BD644AD26942F049
:100590000202624BDA61624A126822F07062614BB9
:1005A000C3F800281A46D2F8002842F03062C3F897
:1005B00000281A46D2F80C2842F04002C3F80C2852
:1005C0001A46D2F8002822F07042C3F800281A46D2
:1005D000D2F8002842F03042C3F800281A46D2F878
:1005E0000C2842F08002C3F80C284C4A926942F071
:1005F00008024A4B9A614B4AD2F8002C22F00F02B3
:10060000484BC3F8002C1A46D2F8002C42F00B02DB
:10061000C3F8002C1A46D2F80C2C42F00102C3F8A1
:100620000C2C1A46D2F8002C22F0F002C3F8002C51
:100630001A46D2F8002C42F0B002C3F8002C1A4639
:10064000D2F80C2C42F00202C3F80C2C9A03A2F848
:100650002C04A2F82814B2F8182442F070029B036C
:10066000A3F818241A46B2F8182442F00802A3F896
:1006700018241A46B2F8202442F00102A3F82024DC
:100680001A46B2F8182442F4E042A3F818241A4695
:10069000B2F8182442F40062A3F818241A46B2F8FB
:1006A000202442F01002A3F820241A46B2F81C2499
:1006B00042F07002A3F81C241A46B2F81C2442F03F
:1006C0000802A3F81C241A46B2F8202442F48072CF
:1006D000A3F820241A46B2F81C2442F4E042A3F8FE
:1006E0001C241A46B2F81C2442F40062A3F81C240D
:1006F0001A46B2F8202442F480520B4B1A80DA13C7
:10070000D303A3F80024D203B2F8002442F001027C
:10071000054B203B1A807047100800400010024033
:1007200000080140000001402004004010B59B4833
:10073000006820F470609A49C1F800080846D0F8B3
:10074000000840F440709549086000209549086011
:1007500040F2EE2000F062F901209349C1F88801CF
:100760000F2000F05BF910BD10B500248B48006825
:1007700020F470608A49C1F800080846D0F80008E3
:1007800040F40060C1F8000804E0601CC4B201201D
:1007900000F044F983488038006808B1C82CF4DBC5
:1007A000C82C01DB012010BD002404E0601CC4B291
:1007B000012000F033F97B488038006808B9F02C3C
:1007C000F4DBF02C01DB0120EDE70020EBE710B5B6
:1007D0007248006820F470607149C1F8000808464A
:1007E000D0F8000840F440706C49086000206D4962
:1007F0000860022000F012F901206B49C1F888015D
:100800006748D0F8000820F470606549C1F8000816
:100810000846D0F8000840F40060604908600C20E9
:1008200000F0FCF85F488038006808B1012400E05F
:100830000024322000F0F2F8204610BD70B50026EA
:10084000012408E0FFF7C3FF0546E80140EA66001F
:10085000C6B2601CC4B2082CF4DD304670BD70B561
:1008600004464E48006820F470604D49C1F8000805
:100870000846D0F8000840F44070C1F8000801268E
:1008800020E004F0010564106DB1002045490860C6
:10089000022000F0C3F801204349C1F888013C2040
:1008A00000F0BCF80CE000203E4908603C2000F05D
:1008B000B5F801203C49C1F88801022000F0AEF8EB
:1008C000701CC6B2082EDCDD70BD10B5FFF72EFF20
:1008D000FFF74AFFCC20FFF7C2FF4420FFF7BFFF1E
:1008E00010BD10B53148806940F004002F4988617F
:1008F0002A48006820F470602949C1F800080846B9
:10090000D0F8000840F44070C1F800080846D0F85C
:100910000C0840F00400C1F80C08FFF707FFFFF7D0
:1009200023FF10BD2DE9FF41FFF7CFFFFFF7FEFECC
:10093000FFF71AFFCC20FFF792FFBE20FFF78FFFD3
:10094000FFF77CFF0546FFF779FF0746072F05DD18
:10095000F843C7B2E843C5B2002400E001243E4694
:10096000300206B2701906B2304600F055FF8046DC
:1009700000F080FDCDE902010DA00CC8029800F046
:100980001FFCCDE9000100F0B7FB06B21CB13046F8
:1009900004B0BDE8F081704200B2F9E70008014000
:1009A0000000014088012142000021420010024065
:1009B000000000000000E43F4FF0E021096921F051
:1009C00004014FF0E02211610146C21700EB5272A0
:1009D000D2101F4B1A70194609784FF47A7251439E
:1009E0009A1C118070471A4A921C128842434FF099
:1009F000E0235A6100229A6101221A6100BF4FF080
:100A0000E022116911F0010F02D011F4803FF6D0FD
:100A100000224FF0E0231A619A6170470C4A127865
:100A200042434FF0E0235A6100229A6101221A6189
:100A300000BF4FF0E022116911F0010F02D011F454
:100A4000803FF6D000224FF0E0231A619A61704790
:100A500000000020AC4A0A400243AC4B1A607047C9
:100A6000072323EA00021202A84B1B1D19684FF648
:100A7000FF031940A64B194311434FF0E023C3F87D
:100A80000C1D70472DE9F04704460D4616461F46DB
:100A90003046F11706EB91714FEAA109F11706EB09
:100AA00091718910A6EB810101F0FF0A042101EB8D
:100AB000CA0000F0FF0A3846FFF7D2FFC7F1040072
:100AC00004FA00F80F203841284040EA080808F0EE
:100AD0000F08202E09DA8F4800680121B140084331
:100AE0004FF0E021C1F800010BE08A48001D0168C9
:100AF000A6F120020120904001434FF0E020C0F811
:100B00000411854850F8290008FA0AF10143824887
:100B100040F82910BDE8F08770B50D46CE1701EBFF
:100B20009676B310CE1701EB9676B610A1EB86063B
:100B3000B606340E794DAD6945F00105774EB561C5
:100B40004FEAB63555F823500F26A640B543744EEC
:100B500046F82350354655F8235000FA04F62E4344
:100B60006F4D45F823606F4D2D6825F480656C4E00
:100B7000083EC6F8005412F0010F09D0694D0C353B
:100B80002E6801258D402E43654D083DC5F80C6447
:100B900012F0020F09D0634D08352E6801258D40F3
:100BA0002E435F4D083DC5F8086470BD00B50020B8
:100BB0005A490861C8601420486100208861C861F2
:100BC0000846006840F00100086008464068564941
:100BD00008405249486008460068544908404F4957
:100BE00008600846006820F48020086008464068D5
:100BF00020F4FE0048600020886000214FF0006073
:100C0000FFF728FF00BD10B540480830006840F0ED
:100C100004004FF0E021C1F8100D4048C06940F0D9
:100C200080503E49C8614248406840F48070404965
:100C300048600846006840F0040008600846006804
:100C400040F002000860FFF79FFA10BD3048001D19
:100C50002E49091D086070470146084649062F4A7B
:100C6000926942F001022D4B9A612D4A083A52686E
:100C700022F0E0622A4B083B5A601A4652680A4347
:100C80005A60704730B504460025FFF78FFF2348B0
:100C9000006840F480302149086000BF1F480068A8
:100CA000400CFBD04FF480601C494860A01EC4B2C9
:100CB0000846406840EA844048600846406840F47E
:100CC000803048601B48006840F0320019490860D5
:100CD0001248006840F080701049086000BF0F485B
:100CE0000068400EFBD00D48406840F002000B4900
:100CF000486005E009484068C0F3870505F0030532
:100D0000022DF7D130BD000080FFFF1F08ED00E08D
:100D10000000FA0500E100E000E400E000100240FD
:100D200008000140000401400000FFF8FFFFF6FE4C
:100D30000070004000200240014600BF704700BF25
:100D4000324A128812F0400FFAD0C2B22F4B1B1D4C
:100D50001A8070472DE9F05F04460D46280100F027
:100D600074FD81462A4904FB01F000F06EFD8246C5
:100D7000494600F033FC0646304600F021FD87B2BC
:100D8000384600F062FD8346314600F00CFE824694
:100D90004FF0834100F05EFD814600F011FD80467A
:100DA0003F0107EB080087B21A48806940F0040051
:100DB000184988610846806940F480408861164877
:100DC000006820F47F601549C1F804080846D0F88F
:100DD000040840F40B60C1F804080E48C06840F4F1
:100DE00080400C49C8600846C06820F48040C86054
:100DF0000B48A0F8087805480C30008842F20C0136
:100E0000084302490C310880BDE8F09F00380140DA
:100E100040420F0000100240040801400000014061
:100E2000003001402DE9F05F002400250026012755
:100E3000A0460920FFF726FF4820FFF7BDFD4FF42D
:100E400016514820FFF786FFFFF7E6FAFFF722FB6F
:100E5000FFF7B6F9002141F21850FFF796FBFFF7B4
:100E6000A6FA00207D4908607D49C1F8B0014FF421
:100E70007A70FFF7B8FD00BFFFF733FD0028FBD104
:100E8000EAE076488838006820B174488438006801
:100E900000287BD1012FFCD186E00025AA460FE077
:100EA0000420FFF73FFA04463220FFF7B7FD7A2C03
:100EB00002DDAC4200DD25460AF101001FFA80FA8E
:100EC000BAF5937FECDDB5F5E17F35DD6548006867
:100ED00040F480606449C1F800041420FFF783FDEA
:100EE0004FF0000B23E00420FFF71CFA044605EB4B
:100EF00085000001642190FBF1F1A14210DC4FF468
:100F0000F5705A4908804107A1F8380401260020ED
:100F10005249091D086001205149C1F8B40109E096
:100F20003220FFF77BFD0BF101001FFA80FBBBF5C0
:100F3000937FD8DD00BF00BFB5F5E17F33DC4948C2
:100F4000006840F480604849C1F800044FF0000B8D
:100F500024E00420FFF7E6F9044605EB85000001D4
:100F6000642190FBF1F1A14211DC4FF4F5703F498F
:100F700008804107A1F83804012600203749091DDF
:100F8000086001203649C1F8B4010AE010E03220BF
:100F9000FFF744FD0BF101001FFA80FBBBF5937FC7
:100FA000D7DD00BF00BF00BF002E3FF476AF1EE0CC
:100FB000012E1CD1B0022B49143108602A48D0F808
:100FC000000420F4806027490860002600250120E5
:100FD0002249091D08600020204918310860234972
:100FE0000880091D0880091D0880091D08806420EB
:100FF00098FBF0F100FB118010BBFFF793FC8146DA
:10100000B9F5FA7F03DD012014491431086040F27C
:10101000EE20814504DD00201049083108600027DA
:1010200040F28A20814504DA01200C490831086029
:101030000127B9F5C87F03DA002008491431086098
:101040000120FFF7D0FC08F1010000F0FF08B8F123
:10105000C80F01D14FF0000813E700009C81214226
:10106000008021420004014000000140340400409F
:1010700070477047704770477047754600F028F812
:10108000AE4605006946534620F00700854618B075
:1010900020B5FFF787F8BDE820404FF000064FF07D
:1010A00000074FF000084FF0000B21F00701AC469D
:1010B000ACE8C009ACE8C009ACE8C009ACE8C009BC
:1010C0008D4670470446AFF300802046FFF757F87F
:1010D000004870470400002002494FF0000000F073
:1010E00042BD00000000F87F02494FF0000000F010
:1010F0003ABD00000000F87F4FEAC12303B40A158F
:1011000043EA505318BF43F000430DD4A2F5607278
:10111000D2F19E0240F32180FF2ACCBF002123FAA6
:1011200002F1084602B070474FEA4252520D08BF22
:1011300023F000434FF00001A2F56072D2F19E024D
:101140000BDBFF2ADCBF23FA02FCA1EB0C01002918
:10115000DEBF02B008467047FFE703BCDFF830C0CF
:10116000012841EB010313F5001F88BF4CF4803CBC
:101170003FF6BAAF3EBF6FEAE17080F000407047C3
:10118000AFF300806FEAE17080F00040704700002C
:10119000C800020410F0004314BF4142014643F06E
:1011A0008043B1FA81FC03F1F87311FA0CF1A3EB5F
:1011B0000C534FEA415008BF704703EBE1217047E1
:1011C000DFF8B4C170B53CEA111E18BF3CEA131E2B
:1011D00000F0A68081EA03050CEA111E4EEAD57ED6
:1011E0001CEA131518BF11EA0C1F00F08F80AE44E3
:1011F00021EA4C1123EA4C13AEF17F7E41F48011B9
:1012000043F48013A1FB024CA0FB0365361955EB98
:101210000C05A1FB034C4CF10003A0FB021C16EBD8
:101220000C06654153F10003094218BF46F0010660
:101230004FF0140CB3F5007F4CF1000CCCF12004FE
:1012400025FA0CF203FA04F141EA020105FA04F06E
:1012500026FA0CF240EA02006FF0030242EB2E4243
:1012600016FA04F401EB025585EACE7115D05FEA57
:10127000440C38BF4FF040440FD308BF43F0004345
:1012800050F1000041F1000110EAD37F4FF080449B
:1012900020EAD37018BF4FF0404415F0004FDFF83C
:1012A000DCC017D415EA0C0F18BF3CEA010C11D0B2
:1012B00070BD5FEACE7454BF1CF4000F1CF4800FA5
:1012C0000ABF4FF080444FF0404410F1010041F15B
:1012D0000001E2E7BEF1806FA2BFA1F1C04144F07E
:1012E000130C4CF0805CBDE8704006DA4FF0000053
:1012F00001F1C04101F0004170476FF0000041EA88
:10130000500181EA10314FF0000070474FEACE7172
:101310004FF0000070BD4FEACE714FF0000070BD7D
:101320004FEA4105B5EB4C1F4FEA430608BF0028C2
:1013300098BFB6EB4C1F08BF002ABDE87040DFF82D
:1013400040C03FF6C9AEAFF300804FF4001CBCEBC9
:10135000410F98BFBCEB430F0AD84FF0000081EA61
:10136000030101F0004141F0FE4141F4700170477A
:1013700004494FF0000070470000FF070000F07FB5
:10138000130000040000F87F094248BF4CF4803C81
:101390004FF4C0634FEA115203F1010321EA0251F5
:1013A00022F400629A1A48BF6FF0FE0241F48011E5
:1013B000352A3CD830D0152A1ED3203A0CD9002823
:1013C000C2F1200321FA02F001FA03F218BF42F041
:1013D00001024FF0000130E0C2F1000302F12002EF
:1013E00001FA03F120FA02F241EA020100FA03F2E3
:1013F00008464FF0000120E0C2F1200310B400FACB
:1014000003F401FA03F320FA02F021FA02F1224672
:1014100010BC43EA000010E050EA01324FF0000037
:101420004FF000014FF0004218BF521C05E04FF092
:1014300001024FF000014FF000001CF4803F2CF43B
:10144000803C18BF41F00041124208BF7047520073
:1014500003D303D0401C41F1000170475FEAAC7236
:10146000F8D4FAD1401C41F1000120F00100F4E76A
:101470007047704700F5000C1CF0FE4F09D0C110FA
:101480004FEA407001F1605158BF7047A1F1E0414F
:1014900070471CF4000F08D00146400008BF704799
:1014A0004FF000004FEA30017047DFF814C04202ED
:1014B00040F08E80AFF3008040F4E00110467047AA
:1014C0001800000490EA010F48BF81F0004100F1CC
:1014D0007C82421A3CBF801A89184FEAD0524FF0E2
:1014E0007F4C1CEA410FA2EBD15318BF9CEA026F5C
:1014F00000F040804FF0004C4CEA00204CEA012103
:1015000021FA03FC10EB0C0C23D202F1FF325FEA4C
:101510001C2040EBC25038BF70471CF07F0F4FEAD1
:10152000400C18BFBCF17F4F38BF7047C3F1200398
:10153000994008BF20F00100BCF17F4F38BF7047D1
:10154000A0F1C0404FF0FF0141EAD0514FEAC15035
:1015500070474FEA3C00000A40EBC25028BF1CF025
:10156000FF0F4FEA400CE1D018BFBCF17F4F38BFEE
:101570007047E5E79CEA026F05D010EA5C0F08BFF0
:1015800000F000407047BCEB410F4FEA400228BF1B
:101590009445DFF828C0C0F01580AFF30080B2EBAF
:1015A000410F05D012F1807F08BF70470846704791
:1015B00090EA010F58BF70470148704701000004CE
:1015C0000000C07F014800F0CEBA00000000C07FDC
:1015D000014800F0C8BA00000000C07F4FF47F0C43
:1015E0001CEAD0121EBF1CEAD11392EA0C0F93EA38
:1015F0000C0F00F0A58090EA010F48BF42F4807202
:1016000040F4000C41F400002CF07F4120F07F40BA
:1016100000B58142A2EB03020FF2401CACEB504E2E
:10162000C0F100009EF800E04FEA4E0E00FB0EFCF9
:1016300038BF49004FEA2C1C02F5FA020CFB0EF3EE
:101640004FEACE1E4FEA112C4FEAC1210EEB635E2A
:101650000EFB0CFC4FEA1C5300FB03114FEA112C4C
:101660004FEA01310EFB0CFC02F4807E42EB224279
:101670004FEADC4C00FB0C11C14228BF09184CEBAF
:101680000333012924BF4EF0020E4EF0804E10EBC2
:10169000410F24BF4EF0010E4EF0804E08BF4EF0B9
:1016A000040E4EF008015DF804EB43EBC25018BF86
:1016B000B2F57C0F38BF704741EAC07108BF20F017
:1016C0000100B2F57C0F38BF704729D512F0F00F3A
:1016D0001CBF00F1C04000F00040704700818283D1
:1016E0008485868788898B8C8D8E8F919293959631
:1016F00097999A9C9D9FA0A2A3A5A7A8AAACAEB0BB
:10170000B2B3B5B7B9BCBEC0C2C5C7C9CCCED1D4BF
:10171000D7D9DCDFE2E6E9ECF0F3F7FAFE000000EF
:101720004FEA400C0CF1807CBCF17E4F28BF704723
:10173000B0F1C0404FF07F404CBF401040087047B0
:1017400090EA010F0CEAD11348BF42F4807262455F
:1017500038BF634507D213F47F0F23D080EA01001E
:1017600000F0004070474FF0807C1CEB400F98BFAA
:101770001CEB410FDFF840C03FF624AFAFF3008011
:101780004FF0807C1CEB400F02BF1CEB410F0B485D
:1017900070471CEB410F0CBF002020F0004040EAD6
:1017A000C250704712F47F0F04BF0448704742F0E4
:1017B000FF004FEAC0507047040000040000C07FE3
:1017C000C2154FEA002318BF43F0004305D4D2F1FD
:1017D0009E020AD323FA02F070474FEA4001B1F1AA
:1017E000FE4F02D24FF000007047DFF828C04FEAEA
:1017F0004001B1F17F4F88BF4CF4803C3FF6E8AE2A
:101800001CBF6FEAE0707047AFF300806FEAE070D2
:10181000704700006800020410F0004218BF404208
:1018200042F08042B0FA80F18840A2EBC15202F14E
:10183000786208BF7047410642EB202018BF5FF076
:10184000806C28BF20F0010070474FF08042FFF706
:10185000E9BF00004FF47F0C1CEAD0121EBF1CEA47
:10186000D11392EA0C0F93EA0C0F00F04A8090EA31
:10187000010F48BF42F480724FF0004C4CEA002048
:101880004CEA01211A44A0FB01C3A2F50002BCF1FD
:10189000000F18BF43F0010302F4807CB3F1004F46
:1018A00038BF5B0042EB2242180A40EBC25028BF0F
:1018B00013F07F0F18BFB2F57C0F38BF704708BF19
:1018C00020F00100B2F57C0F38BF70470BD582F0D5
:1018D000FF0212F5803FC8BF704700F1C040D8BF7B
:1018E00000F00040704700F5000C5FEA4C0C48BF68
:1018F0007047B0F1C0404FF07F404CBF40104008EF
:10190000704790EA010F0CEAD11348BF42F480728D
:10191000624538BF634504D280EA010000F0004010
:1019200070474FF0807C1CEB400F98BF1CEB410FC1
:101930004FF0030C4CF0806C3FF644AEAFF30080E8
:1019400012F47F0F1FBF13F47F0F42F0FF02D00588
:1019500070470148704700000000C07F10B412F4C7
:101960007F0F4FEA00204FEA012110D1B0FA80F436
:1019700000FA04F0A2EB044213F47F0F02F5803268
:1019800018BF41F0004100D010BC18BF604740F0C4
:101990000040B1FA81F401FA04F1A3EB044310BC56
:1019A00003F58033604780F0004090EA010F7FF537
:1019B00090AD81F0004100F008B8000090EA010FFE
:1019C00048BF81F000413FF584AD421A3EBF82F02E
:1019D0000042801A89184FEAD0524FF07F4C1CEA1F
:1019E000410FA2EBD15318BF9CEA026F4FD04FF0CA
:1019F000004C4CEA00204CEA012121FA03FCB0EB38
:101A00000C0C0FD412F0FE0F18BF5FEA4C001DD56E
:101A1000001240EBC25038BF70471CF03F0F18BF98
:101A200070470BE0A2F101025FEA1C2040EBC250BC
:101A300038BF70471CF07F0F18BF7047C3F12003F9
:101A4000994014BF401E20F0010070474FEA122356
:101A500016D0004204BF002070474FEA9000B0FA51
:101A600080FCA2EB0C02CCF1280C60FA0CF093EA9B
:101A7000122F04BF00EBC25070474FEAC37070478B
:101A80005FEADC1008BF70474FEAC37070479CEAFA
:101A9000026F04D010EA5C0F08BF00207047BCEB57
:101AA000410F4FEA400228BF9445DFF82CC0FFF4F5
:101AB00089ADAFF30080B2EB410F06D012F1807F09
:101AC00008BF704781F00040704790EA010F48BF9F
:101AD0007047024870470000020000040000C07F09
:101AE00000F0004343EAD05323F48073C3F1C103F1
:101AF00023F0004117291FD8C3F1200310FA03F186
:101B0000C3F1200320F07F4040F4000020FA03F0EE
:101B100003F0004340EA03000DD00B46590009D3FF
:101B200018BF401C06D17FEAE27398BF401C38BF43
:101B300020F0010070477047182903EB912318BF6C
:101B40006FF00041013168BF03F0004009D6400248
:101B500003F0004000F1010004BF12F0004F20F03C
:101B60000100704770470CF00F03092B08BF0820D5
:101B700000F02B800A2B0BD0082B18BF704708BF32
:101B80001CF0400F0AD04FF000004FF000017047EA
:101B90001CF0400F18BF4FF0004070471CF0100FB2
:101BA00008D020F0704300F07F4242EAD3014FEAB0
:101BB0004370704700F0604021F07F4242EA00022B
:101BC00001F07F4040EA727070471CF4801F11D012
:101BD0001CF4E02F03D06FEACC31490070474FF07E
:101BE0004050EFF3008222F0704242EA000282F39A
:101BF000008870474FF00000704700001C1C000870
:101C0000000000200400000028010008201C00083B
:101C100004000020640800004401000800000000E7
:04000005080000ED02
:00000001FF
