:020000040800F2
:10000000700800208D01000891010008930100088C
:100010009501000897010008990100080000000000
:100020000000000000000000000000009B0100082C
:100030009D010008000000009F010008A1010008C8
:10004000A3010008A3010008A3010008A301000800
:10005000A3010008A3010008A3010008A3010008F0
:10006000A3010008A3010008A3010008A3010008E0
:10007000A3010008A3010008A3010008A3010008D0
:10008000A3010008A3010008A3010008A3010008C0
:10009000A3010008A3010008A3010008A3010008B0
:1000A000A3010008A3010008A3010008A3010008A0
:1000B000A3010008A301000841050008A3010008EE
:1000C000A3010008A3010008A3010008A301000880
:1000D000A3010008A3010008A3010008A301000870
:1000E00091030008A3010008A301000800F002F832
:1000F00000F03CF80AA090E8000C82448344AAF186
:100100000107DA4501D100F031F8AFF2090EBAE883
:100110000F0013F0010F18BFFB1A43F0010318473B
:10012000AC140000CC140000103A24BF78C878C189
:10013000FAD8520724BF30C830C144BF04680C60ED
:10014000704700000023002400250026103A28BF35
:1001500078C1FBD8520728BF30C148BF0B60704739
:100160001FB5AFF300801FBD10B510BD00F063FEDA
:100170001146FFF7F5FF00F019FD00F081FEFFF7D3
:10018000F3FF00F09DFC000030BF0000084800476E
:10019000FEE7FEE7FEE7FEE7FEE7FEE7FEE7FEE737
:1001A000FEE7FEE703480449024A044B704700009B
:1001B000ED00000870000020700800207000002092
:1001C0006D48806940F004006B4988616B480068A5
:1001D0006FF313006A49C1F800086748806940F46A
:1001E0008060654988610846C06840F48060C860E6
:1001F0000846C06820F48060C8600846406820F463
:10020000404048600846406840F4004048605D480F
:1002100000685D4908405D49C1F804080846D0F807
:100220000408C1F804080846D0F8040820F48070D7
:10023000C1F804080846D0F8080820F00200C1F808
:1002400008080846D0F8080820F46020C1F808081B
:100250000846D0F8080840F46020C1F808080846AD
:10026000D0F8080840F48010C1F808080846D0F813
:10027000080820F40060C1F808080846D0F82C08E7
:1002800020F47000C1F82C080846D0F82C08002093
:10029000C1F82C080846D0F810086FF30F00C1F819
:1002A00010080846D0F8100840F4C040C1F8100803
:1002B0000846D0F8100840F44060C1F8100808461D
:1002C000D0F8100840F4C070C1F810080846D0F803
:1002D000100840F03000C1F810080846D0F81008A7
:1002E00040F00600C1F810080846D0F8080840F0B1
:1002F0000100C1F808080846D0F8080840F00800D6
:10030000C1F8080800BF1F48001D006810F0080F62
:10031000F9D11C48001D006840F004001B49C1F8D9
:10032000080800BF1748001D006810F0040FF9D13D
:100330007047014613483030006820F01F00134A10
:10034000C2F834081046D0F834080843C2F834081C
:100350001046D0F8080840F48000C2F8080800BF32
:100360000848001F006810F0020FF9D00548483017
:10037000006880B270470000001002400008014091
:100380000000014004280140FFFFF0000020014070
:1003900010B51F48006801280AD14FF47A7000F0A8
:1003A00001FA4FF4F5701B4908804107A1F8400499
:1003B0004FF480601849086000201849087010BD8B
:1003C00010B51748806940F0080015498861154844
:1003D000006820F470601449C1F8040C0846D0F895
:1003E000040C40F40060C1F8040C0846D0F80C0C72
:1003F00040F48060C1F80C0C02220A21012000F0B8
:100400004FFA022328220121184600F0FFF910BDFF
:10041000288121423C0400401404014008000020CF
:1004200000100240040C0140000001401B4880699C
:1004300040F00800194988611948006820F07F6081
:100440001849C1F8000C0846D0F8000C40F00860CC
:10045000C1F8000C0846D0F8040C20F47060C1F814
:10046000040C0846D0F8040C40F40060C1F8040CF9
:100470000846D0F80C0C40F48060C1F80C0C08461B
:10048000D0F80C0C40F04000C1F80C0C0846D0F835
:100490000C0C40F02000C1F80C0C7047001002401A
:1004A000000C0140000001402248806940F0080033
:1004B000204988612048006820F070401F49C1F839
:1004C000000C0846D0F8000C40F04050C1F8000C79
:1004D0000846D0F8040C00F0FF20C1F8040C0846D0
:1004E000D0F8040C40F03310C1F8040C0846D0F8E2
:1004F0000C0C40F08000C1F80C0C0846D0F80C0C35
:1005000040F48070C1F80C0C0846D0F80C0C40F494
:100510000070C1F80C0C0846D0F80C0C20F4805088
:10052000C1F80C0C0846D0F80C0C20F40050C1F8AF
:100530000C0C704700100240000C0140000001400C
:100540007A4800884FF08040B0F8100820F0010091
:1005500076490880704770B504460D467448C069F6
:1005600040F004007249C86170481C30048088045F
:10057000A0F82858B0F80C0840F001008904A1F850
:100580000C080846B0F8000840F00100A1F8000887
:1005900002231E220321084600F038F970BD644A88
:1005A000D26942F00202624BDA61624A126822F0BA
:1005B0007062614BC3F800281A46D2F8002842F056
:1005C0003062C3F800281A46D2F80C2842F04002E4
:1005D000C3F80C281A46D2F8002822F07042C3F85B
:1005E00000281A46D2F8002842F03042C3F800280A
:1005F0001A46D2F80C2842F08002C3F80C284C4A64
:10060000926942F008024A4B9A614B4AD2F8002C98
:1006100022F00F02484BC3F8002C1A46D2F8002CE7
:1006200042F00B02C3F8002C1A46D2F80C2C42F010
:100630000102C3F80C2C1A46D2F8002C22F0F0026A
:10064000C3F8002C1A46D2F8002C42F0B002C3F8CE
:10065000002C1A46D2F80C2C42F00202C3F80C2CE3
:100660009A03A2F82C04A2F82814B2F8182442F035
:1006700070029B03A3F818241A46B2F8182442F01B
:100680000802A3F818241A46B2F8202442F0010206
:10069000A3F820241A46B2F8182442F4E042A3F842
:1006A00018241A46B2F8182442F40062A3F8182459
:1006B0001A46B2F8202442F01002A3F820241A4669
:1006C000B2F81C2442F07002A3F81C241A46B2F8B7
:1006D0001C2442F00802A3F81C241A46B2F8202475
:1006E00042F48072A3F820241A46B2F81C2442F483
:1006F000E042A3F81C241A46B2F81C2442F400621B
:10070000A3F81C241A46B2F8202442F480520B4B62
:100710001A80DA13D303A3F80024D203B2F800241A
:1007200042F00102054B203B1A8070471008004040
:100730000010024000080140000001402004004079
:100740004FF0E021096921F004014FF0E02211612E
:100750000146C21700EB5272D2101F4B1A70194695
:1007600009784FF47A7251439A1C118070471A4AE3
:10077000921C128842434FF0E0235A6100229A6192
:1007800001221A6100BF4FF0E022116911F0010F40
:1007900002D011F4803FF6D000224FF0E0231A611E
:1007A0009A6170470C4A127842434FF0E0235A6135
:1007B00000229A6101221A6100BF4FF0E022116904
:1007C00011F0010F02D011F4803FF6D000224FF05B
:1007D000E0231A619A61704704000020AC4A0A4085
:1007E0000243AC4B1A607047072323EA000212024F
:1007F000A84B1B1D19684FF6FF031940A64B194360
:1008000011434FF0E023C3F80C1D70472DE9F0476A
:1008100004460D4616461F463046F11706EB917109
:100820004FEAA109F11706EB91718910A6EB81013E
:1008300001F0FF0A042101EBCA0000F0FF0A38466C
:10084000FFF7D2FFC7F1040004FA00F80F20384187
:10085000284040EA080808F00F08202E09DA8F48DF
:1008600000680121B14008434FF0E021C1F80001C8
:100870000BE08A48001D0168A6F12002012090408B
:1008800001434FF0E020C0F80411854850F82900DA
:1008900008FA0AF10143824840F82910BDE8F087C0
:1008A00070B50D46CE1701EB9676B310CE1701EB5F
:1008B0009676B610A1EB8606B606340E794DAD6974
:1008C00045F00105774EB5614FEAB63555F823502E
:1008D0000F26A640B543744E46F82350354655F8CA
:1008E000235000FA04F62E436F4D45F823606F4DF8
:1008F0002D6825F480656C4E083EC6F8005412F051
:10090000010F09D0694D0C352E6801258D402E430D
:10091000654D083DC5F80C6412F0020F09D0634D17
:1009200008352E6801258D402E435F4D083DC5F8E2
:10093000086470BD00B500205A490861C8601420E1
:10094000486100208861C8610846006840F00100E5
:1009500008600846406856490840524948600846C1
:100960000068544908404F4908600846006820F470
:10097000802008600846406820F4FE00486000209F
:10098000886000214FF00060FFF728FF00BD10B520
:1009900040480830006840F004004FF0E021C1F802
:1009A000100D4048C06940F080503E49C86142483F
:1009B000406840F48070404948600846006840F054
:1009C000040008600846006840F002000860FFF775
:1009D000DBFB10BD3048001D2E49091D0860704723
:1009E0000146084649062F4A926942F001022D4B02
:1009F0009A612D4A083A526822F0E0622A4B083B7D
:100A00005A601A4652680A435A60704730B5044625
:100A10000025FFF78FFF2348006840F4803021490C
:100A2000086000BF1F480068400CFBD04FF4806096
:100A30001C494860A01EC4B20846406840EA844091
:100A400048600846406840F4803048601B480068B1
:100A500040F03200194908601248006840F0807088
:100A60001049086000BF0F480068400EFBD00D48D9
:100A7000406840F002000B49486005E009484068C2
:100A8000C0F3870505F00305022DF7D130BD000046
:100A900080FFFF1F08ED00E00000FA0500E100E024
:100AA00000E400E0001002400800014000040140A2
:100AB0000000FFF8FFFFF6FE00700040002002403B
:100AC000014600BF704700BF324A128812F0400F43
:100AD000FAD0C2B22F4B1B1D1A8070472DE9F05F70
:100AE00004460D46280100F098FB81462A4904FB84
:100AF00001F000F092FB8246494600F057FA0646A4
:100B0000304600F045FB87B2384600F086FB83464E
:100B1000314600F030FC82464FF0834100F082FB0A
:100B2000814600F035FB80463F0107EB080087B2A5
:100B30001A48806940F004001849886108468069B5
:100B400040F4804088611648006820F47F601549B1
:100B5000C1F804080846D0F8040840F40B60C1F856
:100B600004080E48C06840F480400C49C86008463C
:100B7000C06820F48040C8600B48A0F80878054899
:100B80000C30008842F20C01084302490C31088005
:100B9000BDE8F09F0038014040420F0000100240C5
:100BA0000408014000000140003001402DE9F047F9
:100BB0000024002500260127A0460920FFF726FF74
:100BC0004820FFF7BDFD4FF416514820FFF786FF80
:100BD000FFF72CFCFFF768FCFFF7F2FA002141F267
:100BE0001850FFF7DCFCFFF7EBFB0020884908609A
:100BF0008849C1F8B00109E185488838006820B10A
:100C000083488438006800287ED1012FFCD18DE014
:100C10000025A9460FE00420FFF78BFB0446322095
:100C2000FFF7C0FD7A2C02DDAC4200DD254609F15C
:100C300001001FFA80F9B9F5937FECDDB5F5E17F8E
:100C400038DD0120744908707448006840F4806001
:100C50007349C1F800041420FFF789FD4FF0000A22
:100C600023E00420FFF765FB044605EB8500000147
:100C7000642190FBF1F1A14210DC4FF4F570694959
:100C800008804107A1F83804012600206049091DA9
:100C9000086001205F49C1F8B40109E03220FFF784
:100CA00081FD0AF101001FFA80FABAF5937FD8DDC1
:100CB00000BF00BFB5F5E17F37DC01205649087061
:100CC0005648006840F480605549C1F800044FF070
:100CD000000A25E00420FFF72CFB044605EB850005
:100CE0000001642190FBF1F1A14212DC4FF4F57098
:100CF0004C4908804107A1F83804012600204449E6
:100D0000091D0860012000E014E04249C1F8B40167
:100D100009E03220FFF746FD0AF101001FFA80FAD0
:100D2000BAF5937FD6DD00BF00BF00BF002E3FF4B1
:100D30006FAF20E0012E1ED1B00238491431086097
:100D40003748D0F8000420F4806034490860002659
:100D5000002501202E49091D086000202C4918316A
:100D6000086030490880091D0880091D0880091D98
:100D70000880294908702848007828BB00202A49A3
:100D8000086080460EE00220FFF7D3FA2649096882
:100D90000844254908600120FFF7E9FC08F101003B
:100DA00000F0FF08B8F10A0FEDDB1F4800680A21C8
:100DB000B0FBF1F01C490860084600684FF4A571CB
:100DC0004843000B1849086017480068802803D280
:100DD00001200F4914310860134800684C2804D2E0
:100DE00000200B490831086000270F48006856288A
:100DF00004D9012006490831086001270A48006823
:100E0000932803D90020024914310860F4E6000059
:100E10009C81214200802142080000200004014002
:100E2000000001403404004000000020704770477B
:100E3000704770477047754600F028F8AE460500C9
:100E40006946534620F00700854618B020B5FFF7E5
:100E5000A9F9BDE820404FF000064FF000074FF021
:100E600000084FF0000B21F00701AC46ACE8C009C8
:100E7000ACE8C009ACE8C009ACE8C0098D467047D1
:100E80000446AFF300802046FFF779F90048704729
:100E90000C00002090EA010F48BF81F0004100F1F2
:100EA0007C82421A3CBF801A89184FEAD0524FF018
:100EB0007F4C1CEA410FA2EBD15318BF9CEA026F92
:100EC00000F040804FF0004C4CEA00204CEA012139
:100ED00021FA03FC10EB0C0C23D202F1FF325FEA83
:100EE0001C2040EBC25038BF70471CF07F0F4FEA08
:100EF000400C18BFBCF17F4F38BF7047C3F12003CF
:100F0000994008BF20F00100BCF17F4F38BF704707
:100F1000A0F1C0404FF0FF0141EAD0514FEAC1506B
:100F200070474FEA3C00000A40EBC25028BF1CF05B
:100F3000FF0F4FEA400CE1D018BFBCF17F4F38BF24
:100F40007047E5E79CEA026F05D010EA5C0F08BF26
:100F500000F000407047BCEB410F4FEA400228BF51
:100F60009445DFF828C0C0F01580AFF30080B2EBE5
:100F7000410F05D012F1807F08BF704708467047C7
:100F800090EA010F58BF7047014870470100000404
:100F90000000C07F014800F0CEBA00000000C07F12
:100FA000014800F0C8BA00000000C07F4FF47F0C79
:100FB0001CEAD0121EBF1CEAD11392EA0C0F93EA6E
:100FC0000C0F00F0A58090EA010F48BF42F4807238
:100FD00040F4000C41F400002CF07F4120F07F40F1
:100FE00000B58142A2EB03020FF2401CACEB504E65
:100FF000C0F100009EF800E04FEA4E0E00FB0EFC30
:1010000038BF49004FEA2C1C02F5FA020CFB0EF324
:101010004FEACE1E4FEA112C4FEAC1210EEB635E60
:101020000EFB0CFC4FEA1C5300FB03114FEA112C82
:101030004FEA01310EFB0CFC02F4807E42EB2242AF
:101040004FEADC4C00FB0C11C14228BF09184CEBE5
:101050000333012924BF4EF0020E4EF0804E10EBF8
:10106000410F24BF4EF0010E4EF0804E08BF4EF0EF
:10107000040E4EF008015DF804EB43EBC25018BFBC
:10108000B2F57C0F38BF704741EAC07108BF20F04D
:101090000100B2F57C0F38BF704729D512F0F00F70
:1010A0001CBF00F1C04000F0004070470081828307
:1010B0008485868788898B8C8D8E8F919293959667
:1010C00097999A9C9D9FA0A2A3A5A7A8AAACAEB0F1
:1010D000B2B3B5B7B9BCBEC0C2C5C7C9CCCED1D4F6
:1010E000D7D9DCDFE2E6E9ECF0F3F7FAFE00000026
:1010F0004FEA400C0CF1807CBCF17E4F28BF70475A
:10110000B0F1C0404FF07F404CBF401040087047E6
:1011100090EA010F0CEAD11348BF42F48072624595
:1011200038BF634507D213F47F0F23D080EA010054
:1011300000F0004070474FF0807C1CEB400F98BFE0
:101140001CEB410FDFF840C03FF624AFAFF3008047
:101150004FF0807C1CEB400F02BF1CEB410F0B4893
:1011600070471CEB410F0CBF002020F0004040EA0C
:10117000C250704712F47F0F04BF0448704742F01A
:10118000FF004FEAC0507047040000040000C07F19
:10119000C2154FEA002318BF43F0004305D4D2F133
:1011A0009E020AD323FA02F070474FEA4001B1F1E0
:1011B000FE4F02D24FF000007047DFF828C04FEA20
:1011C0004001B1F17F4F88BF4CF4803C3FF6E8AE60
:1011D0001CBF6FEAE0707047AFF300806FEAE07009
:1011E000704700006800020410F0004218BF40423F
:1011F00042F08042B0FA80F18840A2EBC15202F185
:10120000786208BF7047410642EB202018BF5FF0AC
:10121000806C28BF20F0010070474FF08042FFF73C
:10122000E9BF00004FF47F0C1CEAD0121EBF1CEA7D
:10123000D11392EA0C0F93EA0C0F00F04A8090EA67
:10124000010F48BF42F480724FF0004C4CEA00207E
:101250004CEA01211A44A0FB01C3A2F50002BCF133
:10126000000F18BF43F0010302F4807CB3F1004F7C
:1012700038BF5B0042EB2242180A40EBC25028BF45
:1012800013F07F0F18BFB2F57C0F38BF704708BF4F
:1012900020F00100B2F57C0F38BF70470BD582F00B
:1012A000FF0212F5803FC8BF704700F1C040D8BFB1
:1012B00000F00040704700F5000C5FEA4C0C48BF9E
:1012C0007047B0F1C0404FF07F404CBF4010400825
:1012D000704790EA010F0CEAD11348BF42F48072C4
:1012E000624538BF634504D280EA010000F0004047
:1012F00070474FF0807C1CEB400F98BF1CEB410FF8
:101300004FF0030C4CF0806C3FF644AEAFF300801E
:1013100012F47F0F1FBF13F47F0F42F0FF02D005BE
:1013200070470148704700000000C07F10B412F4FD
:101330007F0F4FEA00204FEA012110D1B0FA80F46C
:1013400000FA04F0A2EB044213F47F0F02F580329E
:1013500018BF41F0004100D010BC18BF604740F0FA
:101360000040B1FA81F401FA04F1A3EB044310BC8C
:1013700003F58033604780F0004090EA010F7FF56D
:1013800090AD81F0004100F008B8000090EA010F34
:1013900048BF81F000413FF584AD421A3EBF82F064
:1013A0000042801A89184FEAD0524FF07F4C1CEA55
:1013B000410FA2EBD15318BF9CEA026F4FD04FF000
:1013C000004C4CEA00204CEA012121FA03FCB0EB6E
:1013D0000C0C0FD412F0FE0F18BF5FEA4C001DD5A5
:1013E000001240EBC25038BF70471CF03F0F18BFCF
:1013F00070470BE0A2F101025FEA1C2040EBC250F3
:1014000038BF70471CF07F0F18BF7047C3F120032F
:10141000994014BF401E20F0010070474FEA12238C
:1014200016D0004204BF002070474FEA9000B0FA87
:1014300080FCA2EB0C02CCF1280C60FA0CF093EAD1
:10144000122F04BF00EBC25070474FEAC3707047C1
:101450005FEADC1008BF70474FEAC37070479CEA30
:10146000026F04D010EA5C0F08BF00207047BCEB8D
:10147000410F4FEA400228BF9445DFF82CC0FFF42B
:1014800089ADAFF30080B2EB410F06D012F1807F3F
:1014900008BF704781F00040704790EA010F48BFD5
:1014A0007047024870470000020000040000C07F3F
:1014B00000F0004343EAD05323F48073C3F1C10327
:1014C00023F0004117291FD8C3F1200310FA03F1BC
:1014D000C3F1200320F07F4040F4000020FA03F025
:1014E00003F0004340EA03000DD00B46590009D336
:1014F00018BF401C06D17FEAE27398BF401C38BF7A
:1015000020F0010070477047182903EB912318BFA2
:101510006FF00041013168BF03F0004009D640027E
:1015200003F0004000F1010004BF12F0004F20F072
:101530000100704770470CF00F03092B08BF08200B
:1015400000F02B800A2B0BD0082B18BF704708BF68
:101550001CF0400F0AD04FF000004FF00001704720
:101560001CF0400F18BF4FF0004070471CF0100FE8
:1015700008D020F0704300F07F4242EAD3014FEAE6
:101580004370704700F0604021F07F4242EA000261
:1015900001F07F4040EA727070471CF4801F11D048
:1015A0001CF4E02F03D06FEACC31490070474FF0B4
:1015B0004050EFF3008222F0704242EA000282F3D0
:1015C000008870474FF0000070470000EC150008DD
:1015D000000000200C00000028010008F815000899
:1015E0000C00002064080000440100088500000091
:0815F0000000000000000000F3
:04000005080000ED02
:00000001FF
