:020000040800F2
:10000000780800208D010008910100089301000884
:100010009501000897010008990100080000000000
:100020000000000000000000000000009B0100082C
:100030009D010008000000009F010008A1010008C8
:10004000A3010008A3010008A3010008A301000800
:10005000A3010008A3010008A3010008A3010008F0
:10006000A3010008A3010008A3010008A3010008E0
:10007000A3010008A3010008A3010008A3010008D0
:10008000A3010008A3010008A3010008A3010008C0
:10009000A3010008A3010008A3010008A3010008B0
:1000A000A3010008A3010008A3010008A3010008A0
:1000B000A3010008A3010008AD050008A301000882
:1000C000A3010008A3010008A3010008A301000880
:1000D000A3010008A3010008A3010008A301000870
:1000E00085030008A3010008A301000800F002F83E
:1000F00000F03CF80AA090E8000C82448344AAF186
:100100000107DA4501D100F031F8AFF2090EBAE883
:100110000F0013F0010F18BFFB1A43F0010318473B
:10012000281F0000481F0000103A24BF78C878C17B
:10013000FAD8520724BF30C830C144BF04680C60ED
:10014000704700000023002400250026103A28BF35
:1001500078C1FBD8520728BF30C148BF0B60704739
:100160001FB5AFF300801FBD10B510BD01F0ABF996
:100170001146FFF7F5FF00F010FF01F0C9F9FFF796
:10018000F3FF00F037FE000030BF000008480047D2
:10019000FEE7FEE7FEE7FEE7FEE7FEE7FEE7FEE737
:1001A000FEE7FEE703480449024A044B704700009B
:1001B000ED0000087800002078080020780000207A
:1001C0006948806940F004006749886167480068B1
:1001D000674908406749C1F800086348806940F4EE
:1001E0008060614988610846C06840F48060C860EA
:1001F0000846C06820F48060C8600846406820F463
:10020000404048600846406840F4004048605A4812
:1002100000685A4908405A49C1F804080846D0F80D
:100220000408C1F804080846D0F8040820F48070D7
:10023000C1F804080846D0F8080820F00200C1F808
:1002400008080846D0F8080820F46020C1F808081B
:100250000846D0F8080840F46020C1F808080846AD
:10026000D0F8080840F48010C1F808080846D0F813
:10027000080820F40060C1F808080846D0F82C08E7
:1002800020F47000C1F82C080846D0F82C08002093
:10029000C1F82C080846D0F810086FF30F00C1F819
:1002A00010080846D0F8100840F4C040C1F8100803
:1002B0000846D0F8100840F44060C1F8100808461D
:1002C000D0F8100840F03000C1F810080846D0F807
:1002D000100840F00600C1F810080846D0F80808D9
:1002E00040F00100C1F808080846D0F8080840F0BE
:1002F0000800C1F8080800BF1F48001D006810F082
:10030000080FF9D11C48001D006840F004001C498A
:10031000C1F8080800BF1848001D006810F0040F5D
:10032000F9D17047014614483030006820F01F00B2
:10033000134AC2F834081046D0F834080843C2F80B
:1003400034081046D0F8080840F48000C2F80808C5
:1003500000BF0948001F006810F0020FF9D00648DE
:100360004830006880B27047001002400008014029
:10037000000FF0FF0000014004280140FFFFF000E3
:100380000020014010B52E48007890B92D48006833
:1003900001280AD14FF47A7000F09EFB4FF4F570FB
:1003A000294908804107A1F840044FF4806027499B
:1003B000086023480078012818D14FF47A7000F0C3
:1003C0008BFB20480068012806D14FF4F5701E49C8
:1003D00008804107A1F840044FF480601B49086081
:1003E00001201B49087000201A49087010BD10B583
:1003F0001948806940F0080017498861174800686B
:1004000020F470601649C1F8040C0846D0F8040CBA
:1004100040F40060C1F8040C0846D0F80C0C40F41D
:100420008060C1F80C0C02220A21012000F0D2FBEE
:10043000022328220121184600F082FB10BD000093
:1004400015000020288121423C0400401404014092
:10045000000000201400002000100240040C0140A5
:10046000000001402848806940F008002649886162
:100470000846806940F0040088612448006820F044
:100480007F602349C1F8000C0846D0F8000C40F00A
:100490000860C1F8000C0846D0F8040C20F4706025
:1004A000C1F8040C0846D0F8040C40F40060C1F810
:1004B000040C0846D0F8000820F47020C1F80008A9
:1004C0000846D0F8000840F40020C1F800080846AB
:1004D000D0F80C0C40F48060C1F80C0C0846D0F841
:1004E0000C0C40F04000C1F80C0C0846D0F80C0C85
:1004F00040F02000C1F80C0C0846D0F80C0840F081
:100500001000C1F80C08704700100240000C0140B8
:10051000000001402248806940F0080020498861BD
:100520002048006820F070401F49C1F8000C0846C0
:10053000D0F8000C40F04050C1F8000C0846D0F84C
:10054000040C00F0FF20C1F8040C0846D0F8040C9D
:1005500040F03310C1F8040C0846D0F80C0C40F001
:100560008000C1F80C0C0846D0F80C0C40F48070E8
:10057000C1F80C0C0846D0F80C0C40F40070C1F81F
:100580000C0C0846D0F80C0C20F48050C1F80C0C70
:100590000846D0F80C0C20F40050C1F80C0C704741
:1005A00000100240000C0140000001408548008816
:1005B00010F0010F11D084480078012804D183483D
:1005C0000068401C8149086081480078012804D1F6
:1005D00080480068401C7F4908607A48008820F005
:1005E00001004FF08041A1F81008704770B5044633
:1005F0000D467948C06940F004007749C8617148E8
:100600001C3004808804A0F82858B0F80C0840F08A
:1006100001008904A1F80C080846B0F8000840F071
:100620000100A1F8000802231E220321084600F061
:1006300087FA70BD684AD26942F00202664BDA61FD
:10064000664A126822F07062654BC3F800281A46A9
:10065000D2F8002842F03062C3F800281A46D2F8D7
:100660000C2842F04002C3F80C281A46D2F80028A1
:1006700022F07042C3F800281A46D2F8002842F04F
:100680003042C3F800281A46D2F80C2842F0800203
:10069000C3F80C28504A926942F008024E4B9A6106
:1006A0004F4AD2F8002C22F00F024D4BC3F8002C19
:1006B0001A46D2F8002C42F00B02C3F8002C1A465E
:1006C000D2F80C2C42F00102C3F80C2C1A46D2F8D6
:1006D000002C22F0F002C3F8002C1A46D2F8002CAD
:1006E00042F0B002C3F8002C1A46D2F80C2C42F0AB
:1006F0000202C3F80C2C9A03A2F82C04A2F82814C6
:10070000B2F8182442F070029B03A3F818241A468A
:10071000B2F8182442F00802A3F818241A46B2F8D6
:10072000202442F00102A3F820241A46B2F818242B
:1007300042F4E042A3F818241A46B2F8182442F40E
:100740000062A3F818241A46B2F8202442F01002DE
:10075000A3F820241A46B2F81C2442F07002A3F831
:100760001C241A46B2F81C2442F00802A3F81C24E8
:100770001A46B2F8202442F48072A3F820241A46C4
:10078000B2F81C2442F4E042A3F81C241A46B2F842
:100790001C2442F40062A3F81C241A46B2F8202458
:1007A00042F480520F4B1A80DA13D303A3F80024CB
:1007B000D203B2F8002442F001020A4B203B1A8017
:1007C0007047000010080040080000200C000020C6
:1007D0000900002010000020001002400008014025
:1007E000000001402004004010B59B48006820F440
:1007F00070609A49C1F800080846D0F8000840F433
:1008000040709549086000209549086040F2EE204C
:1008100000F062F901209349C1F888010F2000F02F
:100820005BF910BD10B500248B48006820F470609F
:100830008A49C1F800080846D0F8000840F4006072
:10084000C1F8000804E0601CC4B2012000F044F9C3
:1008500083488038006808B1C82CF4DBC82C01DB61
:10086000012010BD002404E0601CC4B2012000F08F
:1008700033F97B488038006808B9F02CF4DBF02CA1
:1008800001DB0120EDE70020EBE710B572480068BE
:1008900020F470607149C1F800080846D0F80008DB
:1008A00040F440706C49086000206D4908600220E7
:1008B00000F012F901206B49C1F888016748D0F8AF
:1008C000000820F470606549C1F800080846D0F8B7
:1008D000000840F40060604908600C2000F0FCF85B
:1008E0005F488038006808B1012400E0002432200D
:1008F00000F0F2F8204610BD70B50026012408E093
:10090000FFF7C3FF0546E80140EA6600C6B2601C77
:10091000C4B2082CF4DD304670BD70B504464E48B4
:10092000006820F470604D49C1F800080846D0F80E
:10093000000840F44070C1F80008012620E004F0EF
:10094000010564106DB1002045490860022000F0E7
:10095000C3F801204349C1F888013C2000F0BCF8ED
:100960000CE000203E4908603C2000F0B5F8012072
:100970003C49C1F88801022000F0AEF8701CC6B2F4
:10098000082EDCDD70BD10B5FFF72EFFFFF74AFF24
:10099000CC20FFF7C2FF4420FFF7BFFF10BD10B50A
:1009A0003148806940F004002F4988612A48006876
:1009B00020F470602949C1F800080846D0F8000802
:1009C00040F44070C1F800080846D0F80C0840F028
:1009D0000400C1F80C08FFF707FFFFF723FF10BD65
:1009E0002DE9FF41FFF7CFFFFFF7FEFEFFF71AFFEC
:1009F000CC20FFF792FFBE20FFF78FFFFFF77CFFB1
:100A00000546FFF779FF0746072F05DDF843C7B214
:100A1000E843C5B2002400E001243E46300206B29D
:100A2000701906B2304601F01DF9804600F048FF0B
:100A3000CDE902010DA00CC8029800F0E7FDCDE958
:100A4000000100F07FFD06B21CB1304604B0BDE8E5
:100A5000F081704200B2F9E7000801400000014057
:100A600088012142000021420010024000000000E5
:100A70000000E43F4FF0E021096921F004014FF04C
:100A8000E02211610146C21700EB5272D2101F4BD7
:100A90001A70194609784FF47A7251439A1C1180E2
:100AA00070471A4A921C128842434FF0E0235A6161
:100AB00000229A6101221A6100BF4FF0E022116901
:100AC00011F0010F02D011F4803FF6D000224FF058
:100AD000E0231A619A6170470C4A127842434FF042
:100AE000E0235A6100229A6101221A6100BF4FF08F
:100AF000E022116911F0010F02D011F4803FF6D00D
:100B000000224FF0E0231A619A6170470200002032
:100B1000AC4A0A400243AC4B1A607047072323EAF1
:100B200000021202A84B1B1D19684FF6FF03194063
:100B3000A64B194311434FF0E023C3F80C1D704737
:100B40002DE9F04704460D4616461F463046F1177C
:100B500006EB91714FEAA109F11706EB917189102B
:100B6000A6EB810101F0FF0A042101EBCA0000F0AD
:100B7000FF0A3846FFF7D2FFC7F1040004FA00F875
:100B80000F203841284040EA080808F00F08202EBE
:100B900009DA8F4800680121B14008434FF0E02195
:100BA000C1F800010BE08A48001D0168A6F120028F
:100BB0000120904001434FF0E020C0F80411854827
:100BC00050F8290008FA0AF10143824840F8291038
:100BD000BDE8F08770B50D46CE1701EB9676B310E1
:100BE000CE1701EB9676B610A1EB8606B606340E4C
:100BF000794DAD6945F00105774EB5614FEAB635DF
:100C000055F823500F26A640B543744E46F823509E
:100C1000354655F8235000FA04F62E436F4D45F83B
:100C200023606F4D2D6825F480656C4E083EC6F834
:100C3000005412F0010F09D0694D0C352E680125C2
:100C40008D402E43654D083DC5F80C6412F0020F2F
:100C500009D0634D08352E6801258D402E435F4D28
:100C6000083DC5F8086470BD00B500205A49086108
:100C7000C8601420486100208861C8610846006887
:100C800040F0010008600846406856490840524953
:100C9000486008460068544908404F4908600846C3
:100CA000006820F4802008600846406820F4FE00B8
:100CB00048600020886000214FF00060FFF728FFA7
:100CC00000BD10B540480830006840F004004FF007
:100CD000E021C1F8100D4048C06940F080503E4905
:100CE000C8614248406840F4807040494860084606
:100CF000006840F0040008600846006840F0020008
:100D00000860FFF741FA10BD3048001D2E49091D4B
:100D1000086070470146084649062F4A926942F02A
:100D200001022D4B9A612D4A083A526822F0E06286
:100D30002A4B083B5A601A4652680A435A60704769
:100D400030B504460025FFF78FFF2348006840F4C4
:100D500080302149086000BF1F480068400CFBD06C
:100D60004FF480601C494860A01EC4B20846406829
:100D700040EA844048600846406840F4803048605B
:100D80001B48006840F032001949086012480068AA
:100D900040F080701049086000BF0F480068400EA6
:100DA000FBD00D48406840F002000B49486005E068
:100DB00009484068C0F3870505F00305022DF7D107
:100DC00030BD000080FFFF1F08ED00E00000FA05C5
:100DD00000E100E000E400E00010024008000140F3
:100DE000000401400000FFF8FFFFF6FE0070004025
:100DF00000200240014600BF704700BF324A1288FF
:100E000012F0400FFAD0C2B22F4B1B1D1A80704750
:100E10002DE9F05F04460D46280100F03CFF8146B5
:100E20002A4904FB01F000F036FF8246494600F0F3
:100E3000FBFD0646304600F0E9FE87B2384600F07A
:100E40002AFF8346314600F0D4FF82464FF08341AB
:100E500000F026FF814600F0D9FE80463F0107EBF7
:100E6000080087B21A48806940F004001849886178
:100E70000846806940F4804088611648006820F484
:100E80007F601549C1F804080846D0F8040840F40A
:100E90000B60C1F804080E48C06840F480400C495B
:100EA000C8600846C06820F48040C8600B48A0F8BD
:100EB000087805480C30008842F20C0108430249CA
:100EC0000C310880BDE8F09F0038014040420F001F
:100ED00000100240040801400000014000300140C1
:100EE00014E0FF480068012801D1FE490870FE485F
:100EF0000068012801D1FD490870FA4800780128EE
:100F000004D1FA480078012800D100E0E9E700BFE9
:100F10000020F4490870F5490870F5480068D8B118
:100F2000F3480068052809D8F148006830B100206E
:100F3000EF490860EF49086001207047EC480068FD
:100F40000A2809D8EA480068062805D30020E8499D
:100F50000860E8490860F0E7E6480068D8B1E5486D
:100F60000068052808D8E348006828B10020E04957
:100F70000860E0490860E0E7DE4800680A280AD80F
:100F8000DC480068062806D30020D9490860D94902
:100F900008600120D1E70220CFE72DE9F84F0024B7
:100FA000002500260127A046002000900920FFF719
:100FB000C7FE4820FFF75EFD4FF416514820FFF7AB
:100FC00027FFFFF74FFAFFF7A5FA002141F218506B
:100FD000FFF730FB41F61F410A20FFF707FBFFF741
:100FE00006FA0020C04974310860C349C1F8B00155
:100FF00000E007E0BA480068012803D1BA48006859
:101000000128F6D000BF0020009007E04FF47A706E
:10101000FFF747FD0098401CC0B2009000981928C7
:10102000F4DBFFF75DFFB549087000BFFFF7B7FCC1
:101030000028FBD14FF47A70FFF733FDAF480078FA
:1010400000287ED14FF47A70FFF72BFDFFF7B8F838
:10105000ECE0A5481438006820B1A34810380068B7
:1010600000286FD1012FFCD188E00025AA460FE0AF
:101070000420FFF757F904463220FFF72DFD7A2CA4
:1010800002DDAC4200DD25460AF101001FFA80FABC
:10109000BAF5937FECDDB5F5E17F35DD9848006862
:1010A00040F480609749C1F800041420FFF7F9FC70
:1010B0004FF0000B23E00420FFF734F9044605EB62
:1010C00085000001642190FBF1F1A14210DC4FF496
:1010D000F5708D4908804107A1F8380401260020E9
:1010E00081497831086001208349C1F8B40109E0E1
:1010F0003220FFF7F1FC0BF101001FFA80FBBBF57A
:10110000937FD8DD00BF00BFB5F5E17F35DC7C48BB
:10111000006840F480607B49C1F800044FF0000B88
:1011200026E00420FFF7FEF8044605EB85000001E9
:10113000642190FBF1F1A14213DC4FF4F570724988
:1011400001E074E01EE008804107A1F838040126A0
:10115000002065497831086001206749C1F8B40171
:1011600009E03220FFF7B8FC0BF101001FFA80FB09
:10117000BBF5937FD5DD00BF00BF00BF002E3FF45D
:1011800074AF1EE0012E1CD1B0025D49143108601D
:101190005C48D0F8000420F48060594908600026BB
:1011A0000025012050497831086000204E498C31DB
:1011B000086055490880091D0880091D0880091D1F
:1011C0000880642098FBF0F100FB118010BBFFF752
:1011D00007FC8146B9F5FA7F03DD012042498831D9
:1011E000086040F2EE20814504DD00203E497C315C
:1011F0000860002740F28A20814504DA01203A493C
:101200007C3108600127B9F5C87F03DA0020364930
:10121000883108600120FFF744FC08F1010000F06C
:10122000FF08B8F1C80F01D14FF0000811E73348AB
:101230000078012853D14FF47A70FFF732FCFEF7A3
:10124000BFFF28E128481438006820B1264810382C
:10125000006800287BD1012FFCD1C3E00025AA46FD
:101260000FE00420FFF75EF804463220FFF734FC5D
:101270007A2C02DDAC4200DD25460AF101001FFA9E
:1012800080FABAF5937FECDD7A2DE6DDB5F5E17FE6
:101290004FDD01201D4908704FF0000A45E0042091
:1012A000FFF740F8044605EB85000001642190FB40
:1012B000F1F1A14232DC4FF4F57013490880410787
:1012C000A1F8380401260020074978310860012080
:1012D0000949C1F8B4010B48D0F8000418E0DBE07C
:1012E000100121420900002028812142080000202D
:1012F000100000200C00002000802142150000207A
:1013000000040140000001403404004014000020AB
:1013100040F480606249C1F8000409E03220FFF720
:10132000DBFB0AF101001FFA80FABAF5937FB6DD04
:1013300000BFB5F5E17F55DC01205A4908705A48D5
:10134000006840F480605649C1F8000403E04DE0B5
:101350001420FFF7C1FB554800780028F8D00A2078
:10136000FFF79FFB0025AA460DE00420FEF7DAFFF9
:1013700004461920FFF7B0FBAC4200DD25460AF118
:1013800001001FFA80FA40F24E208245EDDB4FF05B
:10139000000A22E00420FEF7C5FF044605EB8500A5
:1013A0000001642190FBF1F1A1420FDC4FF4F570D4
:1013B0003F4908804107A1F83804012600203D4933
:1013C000086001203C49C1F8B4010AE01920FFF788
:1013D00083FB0AF101001FFA80FA40F24E20824599
:1013E000D8DB00BF002E3FF439AF1FE000202F49AB
:1013F00008704FF480602C49143108602848D0F8F8
:10140000000420F48060284908600026002501209F
:1014100028490860002027491431086024490880C1
:10142000091D0880091D0880091D0880642098FB9B
:10143000F0F100FB118010BBFFF7D2FA8146B9F53D
:10144000FA7F03DD01201B491031086040F2EE20D5
:10145000814504DD00201749091D0860002740F27E
:101460008A20814504DA01201249091D08600127FC
:10147000B9F5C87F03DA00200E4910310860012059
:10148000FFF70FFB08F1010000F0FF08B8F1C80FEB
:1014900001D14FF00008D5E60020BDE8F88F00002C
:1014A0000000014014000020000401400000002062
:1014B00034040040A08121420080214270477047DF
:1014C000704770477047754600F028F8AE46050033
:1014D0006946534620F00700854618B020B5FEF750
:1014E00061FEBDE820404FF000064FF000074FF0CE
:1014F00000084FF0000B21F00701AC46ACE8C00932
:10150000ACE8C009ACE8C009ACE8C0098D4670473A
:101510000446AFF300802046FEF731FE00487047D6
:101520001800002002494FF0000000F042BD00000A
:101530000000F87F02494FF0000000F03ABD0000C3
:101540000000F87F4FEAC12303B40A1543EA505361
:1015500018BF43F000430DD4A2F56072D2F19E0291
:1015600040F32180FF2ACCBF002123FA02F1084674
:1015700002B070474FEA4252520D08BF23F00043B9
:101580004FF00001A2F56072D2F19E020BDBFF2A40
:10159000DCBF23FA02FCA1EB0C010029DEBF02B084
:1015A00008467047FFE703BCDFF830C0012841EB75
:1015B000010313F5001F88BF4CF4803C3FF6BAAF1F
:1015C0003EBF6FEAE17080F000407047AFF30080EB
:1015D0006FEAE17080F0004070470000C80002042C
:1015E00010F0004314BF4142014643F08043B1FA7A
:1015F00081FC03F1F87311FA0CF1A3EB0C534FEAE1
:10160000415008BF704703EBE1217047DFF8B4C1D8
:1016100070B53CEA111E18BF3CEA131E00F0A6800C
:1016200081EA03050CEA111E4EEAD57E1CEA131569
:1016300018BF11EA0C1F00F08F80AE4421EA4C1154
:1016400023EA4C13AEF17F7E41F4801143F4801302
:10165000A1FB024CA0FB0365361955EB0C05A1FB61
:10166000034C4CF10003A0FB021C16EB0C06654179
:1016700053F10003094218BF46F001064FF0140C65
:10168000B3F5007F4CF1000CCCF1200425FA0CF2EC
:1016900003FA04F141EA020105FA04F026FA0CF219
:1016A00040EA02006FF0030242EB2E4216FA04F405
:1016B00001EB025585EACE7115D05FEA440C38BFC4
:1016C0004FF040440FD308BF43F0004350F10000F7
:1016D00041F1000110EAD37F4FF0804420EAD3703B
:1016E00018BF4FF0404415F0004FDFF8DCC017D4AE
:1016F00015EA0C0F18BF3CEA010C11D070BD5FEA6F
:10170000CE7454BF1CF4000F1CF4800F0ABF4FF0BE
:1017100080444FF0404410F1010041F10001E2E744
:10172000BEF1806FA2BFA1F1C04144F0130C4CF098
:10173000805CBDE8704006DA4FF0000001F1C04166
:1017400001F0004170476FF0000041EA500181EA6A
:1017500010314FF0000070474FEACE714FF000009B
:1017600070BD4FEACE714FF0000070BD4FEA4105E9
:10177000B5EB4C1F4FEA430608BF002898BFB6EBF5
:101780004C1F08BF002ABDE87040DFF840C03FF69C
:10179000C9AEAFF300804FF4001CBCEB410F98BF03
:1017A000BCEB430F0AD84FF0000081EA030101F0BF
:1017B000004141F0FE4141F47001704704494FF08F
:1017C000000070470000FF070000F07F13000004D6
:1017D0000000F87F094248BF4CF4803C4FF4C063DE
:1017E0004FEA115203F1010321EA025122F400628F
:1017F0009A1A48BF6FF0FE0241F48011352A3CD896
:1018000030D0152A1ED3203A0CD90028C2F120036B
:1018100021FA02F001FA03F218BF42F001024FF080
:10182000000130E0C2F1000302F1200201FA03F1ED
:1018300020FA02F241EA020100FA03F208464FF0F0
:10184000000120E0C2F1200310B400FA03F401FA11
:1018500003F320FA02F021FA02F1224610BC43EA17
:10186000000010E050EA01324FF000004FF000019C
:101870004FF0004218BF521C05E04FF001024FF03C
:1018800000014FF000001CF4803F2CF4803C18BF96
:1018900041F00041124208BF7047520003D303D009
:1018A000401C41F1000170475FEAAC72F8D4FAD1F4
:1018B000401C41F1000120F00100F4E7704770473F
:1018C00000F5000C1CF0FE4F09D0C1104FEA40702B
:1018D00001F1605158BF7047A1F1E04170471CF41D
:1018E000000F08D00146400008BF70474FF00000CD
:1018F0004FEA30017047DFF814C0420240F08E809A
:10190000AFF3008040F4E001104670471800000477
:1019100090EA010F48BF81F0004100F17C82421A39
:101920003CBF801A89184FEAD0524FF07F4C1CEA16
:10193000410FA2EBD15318BF9CEA026F00F0408028
:101940004FF0004C4CEA00204CEA012121FA03FC44
:1019500010EB0C0C23D202F1FF325FEA1C2040EBAB
:10196000C25038BF70471CF07F0F4FEA400C18BFC1
:10197000BCF17F4F38BF7047C3F12003994008BFC7
:1019800020F00100BCF17F4F38BF7047A0F1C0408C
:101990004FF0FF0141EAD0514FEAC15070474FEA82
:1019A0003C00000A40EBC25028BF1CF0FF0F4FEA7A
:1019B000400CE1D018BFBCF17F4F38BF7047E5E75E
:1019C0009CEA026F05D010EA5C0F08BF00F00040EF
:1019D0007047BCEB410F4FEA400228BF9445DFF847
:1019E00028C0C0F01580AFF30080B2EB410F05D0E6
:1019F00012F1807F08BF70470846704790EA010FD8
:101A000058BF704701487047010000040000C07FC4
:101A1000014800F0CEBA00000000C07F014800F08D
:101A2000C8BA00000000C07F4FF47F0C1CEAD0123F
:101A30001EBF1CEAD11392EA0C0F93EA0C0F00F0C0
:101A4000A58090EA010F48BF42F4807240F4000C78
:101A500041F400002CF07F4120F07F4000B581422E
:101A6000A2EB03020FF2401CACEB504EC0F10000A1
:101A70009EF800E04FEA4E0E00FB0EFC38BF490016
:101A80004FEA2C1C02F5FA020CFB0EF34FEACE1EB5
:101A90004FEA112C4FEAC1210EEB635E0EFB0CFCEA
:101AA0004FEA1C5300FB03114FEA112C4FEA01319E
:101AB0000EFB0CFC02F4807E42EB22424FEADC4C2F
:101AC00000FB0C11C14228BF09184CEB033301295C
:101AD00024BF4EF0020E4EF0804E10EB410F24BF9B
:101AE0004EF0010E4EF0804E08BF4EF0040E4EF048
:101AF00008015DF804EB43EBC25018BFB2F57C0F50
:101B000038BF704741EAC07108BF20F00100B2F54C
:101B10007C0F38BF704729D512F0F00F1CBF00F1C1
:101B2000C04000F000407047008182838485868732
:101B300088898B8C8D8E8F919293959697999A9C8C
:101B40009D9FA0A2A3A5A7A8AAACAEB0B2B3B5B7FB
:101B5000B9BCBEC0C2C5C7C9CCCED1D4D7D9DCDFD1
:101B6000E2E6E9ECF0F3F7FAFE0000004FEA400C81
:101B70000CF1807CBCF17E4F28BF7047B0F1C040B3
:101B80004FF07F404CBF40104008704790EA010F73
:101B90000CEAD11348BF42F48072624538BF6345F6
:101BA00007D213F47F0F23D080EA010000F0004039
:101BB00070474FF0807C1CEB400F98BF1CEB410F2F
:101BC000DFF840C03FF624AFAFF300804FF0807CD9
:101BD0001CEB400F02BF1CEB410F0B4870471CEB86
:101BE000410F0CBF002020F0004040EAC250704777
:101BF00012F47F0F04BF0448704742F0FF004FEA21
:101C0000C0507047040000040000C07FC2154FEAB6
:101C1000002318BF43F0004305D4D2F19E020AD33B
:101C200023FA02F070474FEA4001B1F1FE4F02D2B1
:101C30004FF000007047DFF828C04FEA4001B1F1D3
:101C40007F4F88BF4CF4803C3FF6E8AE1CBF6FEA84
:101C5000E0707047AFF300806FEAE07070470000FB
:101C60006800020410F0004218BF404242F0804277
:101C7000B0FA80F18840A2EBC15202F1786208BF4D
:101C80007047410642EB202018BF5FF0806C28BFF0
:101C900020F0010070474FF08042FFF7E9BF0000DD
:101CA0004FF47F0C1CEAD0121EBF1CEAD11392EA3B
:101CB0000C0F93EA0C0F00F04A8090EA010F48BF26
:101CC00042F480724FF0004C4CEA00204CEA0121B3
:101CD0001A44A0FB01C3A2F50002BCF1000F18BF1B
:101CE00043F0010302F4807CB3F1004F38BF5B0086
:101CF00042EB2242180A40EBC25028BF13F07F0F7C
:101D000018BFB2F57C0F38BF704708BF20F0010044
:101D1000B2F57C0F38BF70470BD582F0FF0212F589
:101D2000803FC8BF704700F1C040D8BF00F00040FE
:101D3000704700F5000C5FEA4C0C48BF7047B0F1EB
:101D4000C0404FF07F404CBF40104008704790EAC1
:101D5000010F0CEAD11348BF42F48072624538BFCC
:101D6000634504D280EA010000F0004070474FF064
:101D7000807C1CEB400F98BF1CEB410F4FF0030C15
:101D80004CF0806C3FF644AEAFF3008012F47F0F4E
:101D90001FBF13F47F0F42F0FF02D00570470148C8
:101DA000704700000000C07F10B412F47F0F4FEAAC
:101DB00000204FEA012110D1B0FA80F400FA04F0BB
:101DC000A2EB044213F47F0F02F5803218BF41F0FA
:101DD000004100D010BC18BF604740F00040B1FA8D
:101DE00081F401FA04F1A3EB044310BC03F5803342
:101DF000604780F0004090EA010F7FF590AD81F0E0
:101E0000004100F008B8000090EA010F48BF81F0DF
:101E100000413FF584AD421A3EBF82F00042801A75
:101E200089184FEAD0524FF07F4C1CEA410FA2EBC9
:101E3000D15318BF9CEA026F4FD04FF0004C4CEAD0
:101E400000204CEA012121FA03FCB0EB0C0C0FD46A
:101E500012F0FE0F18BF5FEA4C001DD5001240EBD8
:101E6000C25038BF70471CF03F0F18BF70470BE0DF
:101E7000A2F101025FEA1C2040EBC25038BF70475C
:101E80001CF07F0F18BF7047C3F12003994014BFA7
:101E9000401E20F0010070474FEA122316D0004286
:101EA00004BF002070474FEA9000B0FA80FCA2EB1C
:101EB0000C02CCF1280C60FA0CF093EA122F04BF4C
:101EC00000EBC25070474FEAC37070475FEADC1006
:101ED00008BF70474FEAC37070479CEA026F04D096
:101EE00010EA5C0F08BF00207047BCEB410F4FEABF
:101EF000400228BF9445DFF82CC0FFF489ADAFF352
:101F00000080B2EB410F06D012F1807F08BF70470E
:101F100081F00040704790EA010F48BF70470248C7
:101F200070470000020000040000C07F00F0004382
:101F300043EAD05323F48073C3F1C10323F000417B
:101F400017291FD8C3F1200310FA03F1C3F12003AE
:101F500020F07F4040F4000020FA03F003F000433B
:101F600040EA03000DD00B46590009D318BF401CAE
:101F700006D17FEAE27398BF401C38BF20F0010011
:101F800070477047182903EB912318BF6FF0004189
:101F9000013168BF03F0004009D6400203F0004061
:101FA00000F1010004BF12F0004F20F00100704763
:101FB00070470CF00F03092B08BF082000F02B809E
:101FC0000A2B0BD0082B18BF704708BF1CF0400F1E
:101FD0000AD04FF000004FF0000170471CF0400F96
:101FE00018BF4FF0004070471CF0100F08D020F0D1
:101FF000704300F07F4242EAD3014FEA43707047DA
:1020000000F0604021F07F4242EA000201F07F4090
:1020100040EA727070471CF4801F11D01CF4E02F4E
:1020200003D06FEACC31490070474FF04050EFF3D6
:10203000008222F0704242EA000282F30088704778
:102040004FF00000704700006820000800000020EA
:102050001800000028010008802000081800002057
:1020600060080000440100080000000000000000BB
:10207000000000000000000000000000000300005D
:04000005080000ED02
:00000001FF
